:020000040800F2
:1000000098100020D50000081D1A0008C918000823
:1000100000000000000000000000000000000000E0
:10002000000000000000000000000000B51C0008F7
:100030000000000000000000951C0008B71C00082C
:100040000501000800000000050100080501000886
:100050000501000805010008050100080501000868
:100060000000000005010008050100080501000866
:100070000501000805010008050100080000000056
:100080000501000800000000000000000501000854
:100090000000000005010008050100080501000836
:1000A000000000000501000800000000892200088F
:1000B000A522000800000000000000000501000863
:1000C0000348854600F05AF800480047D922000846
:1000D000981000200C4880F308880C480168090E2D
:1000E0000B4A914205D10B480B4901600B480C4962
:1000F00001600C4880470C480047FEE7FEE7FEE73A
:10010000FEE7FEE7FEE70000981000200400000074
:100110001F00000018100240010000000000014014
:1001200000000000491D0008C100000830B50B4662
:10013000014600202022012409E00D46D5409D42C1
:1001400005D31D469540491B254695404019154647
:10015000521E002DF1DC30BD10B5202A04DB08460C
:10016000203AD040002110BD0B46D340D04020247F
:10017000A21A91400843194610BD0000064C012503
:10018000064E05E0E36807CC2B430C3C984710343F
:10019000B442F7D3FFF798FFB0240008D02400083A
:1001A000024600200EE0135C392B06DC135C302B7A
:1001B00003DB135C303B135402E0135C373B1354F6
:1001C000431CD8B28842EEDB70470146392905DC72
:1001D000302903DB08463038C0B27047084637384C
:1001E000C0B2FAE70021084AD16108490969022230
:1001F0001143064A116111464861096940221143C1
:10020000024A116170470000780C00200020024073
:100210000022054BDA61054A126901231A43034B98
:100220001A61018070470000780C00200020024015
:1002300000200F49C96810221140102907D10D492B
:10024000C969022211430B4AD161102108430849B0
:10025000C96804221140042907D10649C96901224D
:100260001143044AD161042108430149C860704721
:1002700000200240780C002070B5044600F040FCDD
:1002800005460BE0601C002808D0002C04D000F0CC
:1002900037FC401BA04201D9032070BD0F48C06845
:1002A000C007C00F0028EDD10C48C06820210840CD
:1002B000202801D10949C8600848C06810210840B9
:1002C000102805D00548C06804210840042803D13F
:1002D000FFF7AEFF0120E0E70020DEE7002002404C
:1002E000F7B504460B460027002272E0985C2128EF
:1002F00018D1D5B200E0521C985C4028FBD1521EA8
:10030000561B0CE0911B491C585CFFF75EFF711EE9
:10031000890088402188401820800027761E002E02
:10032000F0DC1CE0985C402819D1002F17D1D5B221
:1003300000E0521C985C2328FBD1521E561B0CE097
:10034000911B491C585CFFF740FF711E89008840D3
:100350006188401860800127761E002EF0DA985CD4
:10036000262818D1D5B200E0521C985C4028FBD159
:10037000521E561B0CE0911B491C585CFFF725FFD1
:10038000711E89008840E1884018E0800127761EB0
:10039000002EF0DC1CE0985C402819D1002F17D00B
:1003A000D5B200E0521C985C2A28FBD1521E561B85
:1003B0000CE0911B491C585CFFF707FF711E890078
:1003C00088402189401820810127761E002EF0DA0E
:1003D000521C0298824289DD3846FEBDF8B50546BA
:1003E0000E460027002400F077FAAEE1305D3A288F
:1003F0007ED1641C08232246D849304601F04CFCCB
:1004000008340821D548FFF7CBFED4484078D349BB
:100410000978090140184006000ED1490870CF48FC
:100420004079CE49097909014018CC49C9780902B7
:100430004018CA49897809034018CA490880C74842
:10044000C079C649897909014018C7490870C4496B
:100450000878C10F09184910C24A12788918C14A90
:10046000128812128918C04A12788918BF4A11706E
:10047000BD48007800287DD169E008232246B749AD
:10048000304601F009FC08340821B448FFF788FE23
:10049000002016E0B149095C0907090EAF4A115462
:1004A0001146095C431CD25C1143AC4A11541146FD
:1004B000095C82009140AE4A12681143AC4A116057
:1004C000801C0828E6DB72B6AA480069022188432E
:1004D000A84908610846006901210843A549086147
:1004E000A54800689F4A12888118A148002300E0AF
:1004F0002AE10268022000F091F9A049087000BFCB
:100500009C48C068C007C00F0028F9D162B698485F
:100510000088000A96490978401895490968090C2D
:10052000401893490968090E401890490978401805
:100530008E4908708A4800780838894908708948C7
:100540000088001D87490880002089490860844888
:100550000078002803DD8948007800288DD0834882
:100560000078C043401C81490870022322467B4921
:10057000304600E024E001F08FFBA41C0221774804
:10058000FFF70EFE75484078744909780901401854
:100590007B490870754800780978884201D00020AE
:1005A000F8BD0020714908706888764909884018AC
:1005B0007449088074480078401C73490870C4E08E
:1005C0006948007804284ED1042322466349304606
:1005D00001F062FB241D04216048FFF7E1FD5F4844
:1005E000007800075D494978090608435B49897826
:1005F000090508435949C978090408435E49086058
:10060000564800785549497840185449C9784018E7
:100610005249C9784018554909784018534908701B
:1006200008460078C043401C0870022322464B490C
:10063000304601F031FBA41C02214848FFF7B0FD11
:100640004648407845490978090140184C490870E6
:10065000464800780978884201D00120A0E70020B0
:100660004249087071E04048007805284FD13C4865
:10067000037822463949304601F00EFB38480078AD
:100680002418374801783548FFF78AFD00200CE030
:100690003249095C324A1278121A920091403B4A60
:1006A00012688918394A1160401C2D49097888421E
:1006B000EEDB002007E02949095C2C4A12788918F2
:1006C0002A4A1170401C264909788842F3DB2748E2
:1006D0000078C043401C25490870022322461F4968
:1006E000304601F0D9FAA41C02211C48FFF758FD3E
:1006F0001A484078194909780901401820490870BA
:100700001A480078097888421FD0022048E7164826
:100710000078012819D1022322461049304601F001
:10072000BBFAA41C02210D48FFF73AFD0B480078E4
:100730000F2803D1094840780F2801D003202FE764
:1007400000F062F8012704E0641C6888A04200DB26
:100750004CE600BF00F058F8042021E73C000020E0
:10076000190000201C0000201A0000201E0000209C
:100770002000002000200240240000201F00002054
:100780001B0000204E0000204C0000200000002034
:1007900070B5044600252120005D022803D0042006
:1007A000A06301251EE0206800680E2188432168AF
:1007B0000860206800684008400021680860012047
:1007C000216C8840E16B486001212120015500BF68
:1007D00000212020015500BF606B002802D0204678
:1007E000616B8847284670BD31B500F089F9054630
:1007F000009C601C002800D0641C00BF00F080F941
:10080000401BA042FAD338BD034800698021084349
:10081000014908610020704700200240F0B51FB474
:1008200086B0074615461E4601200390002400208E
:10083000029000BF2548007E012802D102200BB0A3
:10084000F0BD01202149087600BF2148FFF714FDC3
:1008500003900398002831D1012F02D1012002908A
:1008600006E0022F02D10220029001E00420029053
:1008700000241FE022012846314604960595FFF723
:100880006BFC80B2610001900798081800900199F4
:10089000FFF7BEFC0E48FFF7EFFC03900D48006920
:1008A000400840000B4908610398002800D004E08C
:1008B000601CC4B202988442DCDB00BF00BF002091
:1008C0000249087600BF0398B9E70000780C0020C1
:1008D00050C3000000200240074800698021084002
:1008E000002805D00548044948600548486001E0F3
:1008F000012070470020FCE70020024023016745EB
:10090000AB89EFCD78B50346002200240020DEE05D
:10091000012696400D6835402C46002C7ED04D684F
:10092000022D02D04D68122D15D1D508AE001D46FE
:100930002035A8595507EE0E0F25B5400646AE43A3
:1009400030465607F60E0D69B5402843D508AD0070
:100950001E4620367051186856000325B5400646DD
:10096000AE4330460D79AD07AD0F5600B540284374
:1009700018604D68012D08D04D68022D05D04D68D6
:10098000112D02D04D68122D18D1986856000325FC
:10099000B5400646AE4330465600CD68B5402843C4
:1009A00098605868012595400646AE4330461026AB
:1009B0004D6835402D09954028435860D868560049
:1009C0000325B5400646AE43304656008D68B54017
:1009D0002843D860012636074D683540B54275D1A9
:1009E00000BF3E4DAD69012635433C4EB5613546ED
:1009F000AD69ED07ED0F009500BF00BF384D9608BB
:100A0000B600A85995072E0F0F25B5400646AE43F0
:100A100030460925ED06AB4203D100E056E0002543
:100A20000FE0304DAB4201D101250AE02E4DAB4223
:100A300001D1022505E02D4DAB4201D1032500E097
:100A400005259607360FB5402843254D9608B60074
:100A5000A851274D28680546A54328460126360497
:100A60004D683540B54202D1054625432846204D04
:100A7000286068680546A5432846012676044D6827
:100A80003540B54202D1054625432846184D6860D9
:100A9000A8680546A5432846012636054D68354019
:100AA000B54202D1054625432846114DA860E868A5
:100AB0000546A5432846012676054D683540B542D2
:100AC00002D1054625432846094DE860521C0D68B1
:100AD000D540002D00D01BE778BD0000001002407B
:100AE000080001400004004800080048000C0048CD
:100AF00000040140002A01D0816100E0816270475A
:100B00000148006870470000540000200248006857
:100B1000401C0149086070475400002010B5064889
:100B200000681021084304490860002000F006F81E
:100B300000F018F8002010BD0020024070B50446F7
:100B400000F020F906467D21C900FFF7EFFA0546BF
:100B500000F07CFC00222146501E00F03FF80020EF
:100B600070BD000008B500BF154880690121084329
:100B70001349886108468069C007C00F009000BF14
:100B800000BF00BF0846C069090408430C49C8619A
:100B90000846C06909040840009000BF00BF002259
:100BA0001146501F00F01AF800221146901E00F066
:100BB00015F800221146501E00F010F808BD000084
:100BC0000010024000BFC206D20E01219140024A2D
:100BD000116000BF7047000000E100E070B50446FE
:100BE0000D4616462946204600F01AFF70BD00004B
:100BF00070B504460D4600265D480068C007C00F6A
:100C0000A8420ED25A48006840084000284358497C
:100C1000086008460068C007C00FA84201D0012044
:100C200070BD022120680840022807D15148406861
:100C3000F0218843A16808434E4948602078C007E6
:100C4000C00F00285FD06068012808D149480068BB
:100C5000012149040840002815D10120E0E760681F
:100C6000022808D1434800680121490608400028AD
:100C700009D10120D4E73F4800680221084000283C
:100C800001D10120CCE73B484068800880006168C2
:100C9000084338494860FFF733FF0646606801287B
:100CA0000FD107E0FFF72CFF801B3349884201D9A1
:100CB0000320B5E72F4840680C2108400428F1D1F3
:100CC00021E0606802280FD107E0FFF719FF801BC1
:100CD0002949884201D90320A2E7264840680C210F
:100CE00008400828F1D10EE007E0FFF709FF801B5C
:100CF0002149884201D9032092E71E4840680C210F
:100D000008400028F1D11A480068C007C00FA84267
:100D10000ED917480068400840002843144908606D
:100D200008460068C007C00FA84201D0012077E73D
:100D3000042120680840042808D10E484068072193
:100D400009028843E16808430A49486000F032F824
:100D500008494968F02211400909084A515CC84015
:100D6000074908600020FFF7E9FE002058E700006F
:100D70000020024000100240881300009824000860
:100D8000580000200148006870470000580000200B
:100D900000B5FFF7F7FF0549496807221202114025
:100DA000090A034A515CC84000BD0000001002401F
:100DB000A8240008F0B589B025A001460EC9C06876
:100DC00005AC0EC4089026A001460EC9C06801AC4F
:100DD0000EC4049000240026002700250020009067
:100DE000234844680C20204000282AD0042802D040
:100DF000082825D102E01F48009025E00F2080043C
:100E00002040800C05A90D5C1948C06A0007000F3E
:100E100001A90E5C0320C00320400121090488427F
:100E200006D131461348FFF781F96843074605E0CC
:100E300031461048FFF77AF968430746009703E008
:100E400000BF0C48009000BF00BF009809B0F0BD83
:100E500002030405060708090A0B0C0D0E0F1010FB
:100E60000102030405060708090A0B0C0D0E0F10FA
:100E70000010024000127A00F8B5044600252078E0
:100E8000C007C00F002872D0FA4840680C21084003
:100E900004280CD0F74840680840082813D1F548CA
:100EA0004068490308400121090488420BD1F148F8
:100EB000006801214904084000286BD060680028C0
:100EC00068D10120F8BD00BF6068012807D1E9485A
:100ED0000068012109040843E649086031E06068C0
:100EE00000280ED1E3480068012109048843E14944
:100EF000086008460068012189048843DD490860CC
:100F00001FE0606805280ED1DA48006801218904D5
:100F10000843D849086008460068012109040843CD
:100F2000D44908600DE0D3480068012109048843D2
:100F3000D049086008460068012189048843CD49EA
:100F4000086000BF6068002812D0FFF7D9FD054691
:100F500006E0FFF7D5FD401B642801D90320B1E767
:100F6000C44800680121490408400028F1D011E07C
:100F7000FFF7C6FD054606E0FFF7C2FD401B6428EB
:100F800001D903209EE7BB480068012149040840BD
:100F90000028F1D1022120680840022862D1B5481A
:100FA00040680C21084000280CD0B2484068084036
:100FB00008281CD1AF484068490308400121C903F3
:100FC000884214D1AB48006802210840002804D0B0
:100FD000E068012801D0012074E7A6480068F821E4
:100FE00088432169C9000843A24908603AE0E068E3
:100FF000002820D09F480068012108439D490860CF
:10100000FFF77EFD054606E0FFF77AFD401B02284C
:1010100001D9032056E797480068022108400028BC
:10102000F2D094480068F82188432169C900084338
:101030009049086016E08F480068400840008D49DC
:101040000860FFF75DFD054606E0FFF759FD401B10
:10105000022801D9032035E78648006802210840AC
:101060000028F2D1082120680840082831D1E06921
:10107000002817D07F48406A012108437D49486213
:10108000FFF73EFD054606E0FFF73AFD401B02284C
:1010900001D9032016E77748406A0221084000285A
:1010A000F2D016E07348406A400840007149486237
:1010B000FFF726FD054606E0FFF722FD401B02284C
:1010C00001D90320FEE66B48406A0221084000284F
:1010D000F2D1042120680840042871D10026654817
:1010E000C0698906084000280DD100BF6148C06969
:1010F00008436049C8610846C06909040840009077
:1011000000BF00BF01265C480068FF210131084094
:10111000002816D158480068084357490860FFF76F
:10112000EFFC054606E0FFF7EBFC401B642801D905
:101130000320C7E650480068FF210131084000281D
:10114000F1D000BFA068012806D14A48006A0121F9
:101150000843484908622BE0A06800280CD14548A4
:10116000006A40084000434908620846006A0421BA
:101170008843404908621BE0A06805280CD13D481F
:10118000006A042108433B4908620846006A0121BD
:101190000843384908620BE03648006A40084000BE
:1011A000344908620846006A0421884331490862CC
:1011B00000BFA068002813D0FFF7A2FC054608E096
:1011C00029E0FFF79DFC401B2C49884201D90320F0
:1011D00078E62848006A022108400028F1D011E092
:1011E000FFF78EFC054607E0FFF78AFC401B23490A
:1011F000884201D9032065E61E48006A02210840A2
:101200000028F1D1012E05D11A48C0693107884361
:101210001849C86100BF10212068084010285FD11C
:10122000606901282CD11348406B042108431149FF
:1012300048630846406B012108430E494863FFF7A5
:101240005FFC054606E0FFF75BFC401B022801D966
:10125000032037E60748406B022108400028F2D0FF
:101260000448406BF8218843A169C900084301493B
:10127000486335E000100240007000408813000011
:101280006069401D00280FD14E48406B04218843FF
:101290004C4948630846406BF8218843A169C9005E
:1012A0000843484948631BE04648406B0421084313
:1012B000444948630846406B400840004863FFF7D4
:1012C0001FFC054606E0FFF71BFC401B022801D966
:1012D0000320F7E53B48406B022108400028F2D18B
:1012E000206A00286CD0374840680C210840082844
:1012F00064D0206A022847D13248006801210906DB
:10130000884330490860FFF7FBFB054606E0FFF71E
:10131000F7FB401B022801D90320D3E529480068C8
:101320000121490608400028F1D100BF2548C06AC4
:1013300000090001E16A08432249C862616AA06AA3
:101340000843204949687B22D203914308431D4941
:10135000486000BF08460068012109060843194992
:101360000860FFF7CDFB054606E0FFF7C9FB401B11
:10137000022801D90320A5E5124800680121490689
:1013800008400028F1D01BE00E4800680121090642
:1013900088430C490860FFF7B3FB054606E0FFF7FA
:1013A000AFFB401B022801D903208BE505480068EC
:1013B0000121490608400028F1D101E0012081E522
:1013C00000207FE500100240042806D10649096983
:1013D00004221143044A116105E00349096904220A
:1013E0009143014A1161704700E000E010B5FFF73A
:1013F00087FB1149086011488079012803D0104803
:101400000088002816DD00231A4601210D4800F04F
:1014100043FB0446642322460A490B4800F0CEF9F8
:1014200007480088002804DD05480088401E04495C
:10143000088000BF10BD0000100000202A0000201E
:101440000C000020760B0020040C002070B5044630
:101450002546681E0949884201D901200CE0681E12
:10146000074948610321081F00F0DAFA0020044907
:10147000886107200861002070BD0000FFFFFF00A9
:1014800000E000E010B5FFF7B1FF10BD70470000AD
:10149000F8B504462068C569206806682807000F6B
:1014A0000090009800280BD120202840002807D069
:1014B00020203040002803D0204600F039FDF8BD40
:1014C00020688768009800287ED0F807C00F0028A1
:1014D00004D1FF20213030400028F5D0E807C00FAC
:1014E00000280BD0FF2001303040002806D001201A
:1014F00021680862E06E01210843E066022028406E
:1015000000280AD0F807C00F002806D00220216862
:101510000862E06E04210843E066042028400028A9
:101520000AD0F807C00F002806D0042021680862FE
:10153000E06E02210843E0660820284000280ED013
:1015400020203040002803D1F807C00F002806D023
:10155000082021680862E06E08210843E066E06E1A
:10156000002841D020202840002806D020203040EC
:10157000002802D0204600F0F9F8E06E082108406B
:10158000002805D12068806840210840002826D026
:10159000204600F0ACFC206880684021084000280C
:1015A00019D020688068884321688860606E0028B0
:1015B0000DD01B48616E4863606EFFF7E9F80028A4
:1015C00012D0606E416B00E00FE088470CE02046CF
:1015D000FFF75CFF08E02046FFF758FF04E02046D5
:1015E000FFF754FF0020E06669E7802028400028CC
:1015F00007D080203040002803D0204600F0D2FDE4
:101600005DE740202840002807D0402030400028D7
:1016100003D0204600F07CFC51E700BF4FE70000FC
:10162000D71E000810B50446002C01D1012010BDC2
:10163000A069002800D000E000BF6920005D0028FC
:1016400005D1002168200155204600F02DF8242105
:101650006920015520680068400840002168086042
:10166000204600F0ADFC012800D1E0E7606A0028C8
:1016700002D0204600F0A8FB206840680121C90282
:101680008843216848602068806808218843216871
:1016900088602068006801210843216808602046AE
:1016A00000F00AFCC3E7000010B586B004462C49E0
:1016B0002068884226D100BF2A48C0690121490418
:1016C00008432849C8610846C06901214904084007
:1016D000009000BF00BF0F20019002200290002068
:1016E0000390032004900120059001A90920C00661
:1016F000FFF708F9002211461C20FFF76FFA1C20A3
:10170000FFF760FA18492068884227D100BF1548C2
:10171000806901218903084312498861084680696C
:10172000012189030840009000BF00BF0320400250
:1017300001900220029000200390032004900120D9
:10174000059001A90920C006FFF7DCF80022114628
:101750001B20FFF743FA1B20FFF734FA06B010BD39
:1017600000440040001002400038014010B504461B
:101770000E492068884218D12068808C0C490D4A97
:1017800012888854FFF7BCF90B49086009480088A3
:10179000B1210901884203DB00200649088004E0EA
:1017A00004480088401C0349088010BD00380140EF
:1017B000660000203A00002014000020FEB5044618
:1017C0000D4616461F46002001906920005D202826
:1017D0006AD1002D01D0002E01D10120FEBD0121D2
:1017E0000903A068884208D12069002805D1E807CC
:1017F000C00F002801D00120F0E700BF6820005D85
:10180000012801D10220E9E701216820015500BF2C
:101810000020E066212169200155FFF771F9019050
:10182000502006535220065325E05220005B401EF4
:1018300081B2522001530097002280212046019B53
:1018400000F0E9FC002801D00320C7E701210903CB
:10185000A06888420BD12069002808D10295029D1A
:101860002888C005C00D21680885AD1C03E02878D4
:101870006D1C216808855220005B0028D5DC00978C
:10188000002240212046019B00F0C5FC002801D029
:101890000320A3E720216920015500BF0021682013
:1018A000015500BF002099E7022097E7044A01682C
:1018B000914203D10168098D024A117070470000FE
:1018C000004400405000002000BFFEE700B587B094
:1018D00000BF244840690121890508432149486126
:1018E00008464069012189050840019000BF00BFFA
:1018F00000BF1C484069491108431A49486108461D
:101900004069012149040840019000BF00BF002246
:1019100002211548FFF7EEF8022002900120039003
:1019200000200490059002A90F48FEF7EBFF10205D
:1019300002900120039000200490059002A9092044
:10194000C006FEF7DFFF2020029001200390002058
:101950000490059002A90920C006FEF7D3FF07B046
:1019600000BD0000001002400014004810B50F48F0
:101970000F490860E1204002486000210C48816066
:10198000C16001610C21416100218161C16101627D
:101990000020074948620846FFF744FE002803D0AC
:1019A000472104A000F086FC10BD00000038014073
:1019B000040C00202E2E2F5372632F7573617274E6
:1019C0002E63000010B50F480F490860E120400267
:1019D000486000210C488160C16001610C214161B7
:1019E000890181610021C1610162002006494862CC
:1019F0000846FFF717FE002803D05D2103A000F082
:101A000059FC10BD00440040940B00202E2E2F5393
:101A100072632F75736172742E630000704700004B
:101A200010B5002819DA1A4A03071B0F083B9B0858
:101A30009B00D2588307DC0EFF23A3409A438B07F9
:101A40001B0E8407E40EA3401A43114B0407240F16
:101A5000083CA408A4001A5118E00E4A03231B02F4
:101A6000D21883089B00D2588307DC0EFF23A340C3
:101A70009A438B071B0E8407E40EA3401A43054BC1
:101A8000032424021B198408A4001A5110BD00006D
:101A90001CED00E000E100E0FFB581B00446174610
:101AA000002500F07FFC00900121009800F07EFCF2
:101AB0000090012229466D1C62540299009800F0A2
:101AC00075FC00902A466D1C0299A15400260AE07C
:101AD000BA5D2846691CCDB22254B95D009800F069
:101AE00065FC0090761C04988642F1DB009800F0BB
:101AF00051FC00900098C2B22846691CCDB2225415
:101B0000009800126055284605B0F0BDFEB50446A9
:101B10000E466078022806D003281CD0042833D053
:101B200005287DD17BE000BF00BF00BF00BF00BF24
:101B3000BFF34F8F00BF00BF00BF3B483B49C860A9
:101B400000BF00BF00BFBFF34F8F00BF00BF00BF8B
:101B500000BF00BFFDE70220354988715521684666
:101B60000171102141710B218171032301AA1946D2
:101B70003048FFF791FF0546FF23F5332A462D49EC
:101B80002D48FFF71BFE4CE02A4621462B48FEF766
:101B9000A7FBFEF7A1FE2949098889020522D20286
:101BA0008818FEF71FFB00BF2548C068C007C00F9C
:101BB0000028F9D1FEF728FE2A4621461F48FEF7E5
:101BC0000DFC04280ED10123552204211948FFF7EA
:101BD00063FF0746FF23F5333A4616491648FFF7D9
:101BE000EDFD1AE0FF21684601701448017868464F
:101BF00041701248008800126946887003236A46C3
:101C000004210C48FFF748FF0746FF23F5333A4607
:101C100008490948FFF7D2FD00BF02E000E000E0FC
:101C200000BF00BFFEBD00000400FA0500ED00E0AB
:101C30002A000020760B0020040C00205C0000200D
:101C400000200240F8B504460E4600F0ABFB074604
:101C5000002506E0615D384600F0A8FB0746681CD9
:101C600085B2B542F6DB002F0DD12078012800D0D7
:101C7000F8BD6078072800D0FAE7044801880448D6
:101C8000FFF744FF00E0F3E700BFF1E73A00002070
:101C9000660000207047000070B50446002004E094
:101CA0001518655D024E3554401C9842F8DB70BD36
:101CB0003C000020704710B5FEF728FFFFF7E2FB5D
:101CC00010BD000030B591B00220059001200890B1
:101CD0001020099000200D9005A8FFF7CDF80028EE
:101CE00004D0E921890013A000F0E4FA0720019054
:101CF0000020029003900490002101A8FEF778FFD5
:101D0000002803D00F490BA000F0D4FAFFF73AF8EF
:101D100005467D21C900FEF709FA0446FFF796FB48
:101D20000420FFF751FB00221146501EFEF756FF1C
:101D300011B030BD2E2E2F5372632F6D61696E2E40
:101D400063000000B10300001C4800680121084343
:101D50001A49086008464068194908401749486010
:101D6000084600681749084014490860084600689A
:101D700001218904884311490860084640683F21D1
:101D8000090488430D4948600846C06A00090001FB
:101D9000C8620846006BFF219431884307490863F5
:101DA0000846006B80210843044908630846406BDD
:101DB00040084000486300208860704700100240DF
:101DC0000CB8FF08FFFFF6FE818CC907C90F002978
:101DD00008D001684968012252049143826A114384
:101DE000026851600222416A1140002907D001684F
:101DF0004968D2039143C26A1143026851600422C8
:101E0000416A1140002907D00168496812049143D2
:101E1000026B1143026851600822416A1140002997
:101E200007D00168496812039143426B114302686D
:101E300051601022416A1140002907D00168896869
:101E400012029143826B1143026891602022416A21
:101E50001140002907D00168896812029143C26BC2
:101E60001143026891604022416A1140002915D057
:101E70000168496892039143026C11430268516002
:101E800001221205016C914208D1016849680322C0
:101E900052059143426C1143026851608022416AAD
:101EA0001140002907D00168496812039143826CF0
:101EB000114302685160704701460020C866202225
:101EC000692042546A20425400BF002268204254D4
:101ED00000BF0020704770B505466C6A00215A208B
:101EE0000153522001532046FFF7D0FA70BD01681C
:101EF0000968FF22213291430268116001688968F4
:101F0000490849000268916020226A210A547047FA
:101F100010B50446206800684021884321680860A5
:101F20002021692001552046FFF7C0FC002010BD8C
:101F3000F8B504465C20075B6A20005D222836D194
:101F40002068858C01210903A06888420AD1206994
:101F5000002807D1666D284638403080606D801CAF
:101F6000606505E0F8B22840626D511C6165107033
:101F70005A20005B401E81B25A200153002914D11F
:101F800020680068FF2121318843216808602068AB
:101F90008068400840002168886020216A2001553F
:101FA0002046FFF7E3FB0020F8BD0020FCE7206897
:101FB000806908210843216888610220F4E7000055
:101FC000FEB504460025102600270020029001904F
:101FD0002169A068084361690843E169084305462F
:101FE0002068006868490840284321680860206824
:101FF0004068032109038843E16808432168486079
:10200000216AA06908430546206880680B210902FF
:10201000884328432168886000BF5C492068884263
:1020200017D15B48006B8007800F002806D001287D
:1020300008D0022808D0032808D101E0002607E0D4
:10204000022605E0042603E0082601E0102600BF72
:1020500006E050492068884201D1002600E01026A1
:1020600000BF0121C903E069884249D1042E20D074
:1020700004DC002E07D0022E32D111E0082E25D02C
:10208000102E2DD12DE0FEF783FE40006168490837
:10209000401800906168FEF749F880B2029023E092
:1020A00061684A083C4BD018FEF740F880B20290B5
:1020B0001AE0FEF77FFE4000616849084018009072
:1020C0006168FEF733F880B202900DE061684A085B
:1020D00001231B04D018FEF729F880B2029003E018
:1020E00000BF0120019000BF00BF2C4902980840AA
:1020F000074602980007400F07432068C76040E08A
:10210000042E21D004DC002E07D0022E34D111E0A1
:10211000082E26D0102E2FD12FE0FEF739FE616851
:102120004908401800906168FEF700F880B2216805
:10213000C86025E061684A08194BD018FDF7F6FF22
:1021400080B22168C8601BE0FEF734FE6168490870
:10215000401800906168FDF7E9FF80B22168C8600F
:102160000EE061684A080123DB03D018FDF7DEFFAB
:1021700080B22168C86003E000BF0120019000BF69
:1021800000BF0198FEBD0000F369FFEF0038014079
:1021900000100240004400400024F400F0FF000062
:1021A00000127A0001466920405C212831D152207A
:1021B000405A00280DD108680068802398430B68B6
:1021C000186008680068402318430B6818600020F6
:1021D000704701231B03886898420CD108690028C6
:1021E00009D1CA6C1088C005C00D0B681885C86C71
:1021F000801CC86405E0CB6C581CC86418780B6858
:1022000018855220405A401E83B25220435200206B
:10221000DEE70220DCE7FFB581B004460D46174635
:102220000A9E24E0701C002821D0002E05D0FEF765
:1022300067FC0499401AB04219D920680068FF2150
:10224000A131884321680860206880684008400008
:10225000216888602021692001556A20015500BF4E
:1022600000216820015500BF032005B0F0BD2068A3
:10227000C0692840A84201D1012000E00020B842F6
:10228000D0D00020F1E7000010B505480068C06913
:1022900020210840002802D00148FFF767FA10BD4E
:1022A000040C002010B50248FFF7F2F810BD000042
:1022B000940B002000BFFEE702E008C8121F08C10F
:1022C000002AFAD170477047002001E001C1121FB7
:1022D000002AFBD170470000FEF720FCFFF7F2FC5C
:1022E000FFF7F4FAFFF76EFBFFF740FB1C2001211C
:1022F0008140214A116000BF62B620480068006832
:10230000202108431D490968086001201C49887183
:1023100011200880222048800B20C0028880642081
:10232000FEF762FA012220210920C006FEF7E2FB37
:102330006420FEF759FA7D20C000FEF755FA00220E
:1023400010210920C006FEF7D5FB7D20C000FEF756
:102350004BFA0FE00B4800680B490968401A042843
:1023600008D90A480088002804DD08480188084880
:10237000FFF768FCEEE7000000E100E0040C00203D
:102380002A00002010000020140000203A00002045
:102390006600002000B50346184600F037F80346F3
:1023A000184600BD00487047FFFF000030B50446E6
:1023B0000D460123024A2946204600F003F830BDAD
:1023C00005800000F0B504460D4616461F46002F56
:1023D00003D0284600F048F80546802312E001218A
:1023E000C9032140084661040C0C29461940002904
:1023F00002D00121C9034840002802D02146714083
:102400000C465B10002BEAD12046F0BD104901407C
:102410004900104A02405210114308460E4901403B
:1024200089000E4A02409210114308460C490140AF
:1024300009010C4A02401211114308460106090C19
:10244000FF22120202401212114308467047000098
:1024500055550000AAAA000033330000CCCC000080
:102460000F0F0000F0F00000552101404900AA22A2
:102470000240521011430846332101408900CC220A
:1024800002409210114308460107090EF022024053
:1024900012111143084670470000000000000000C0
:1024A00001020304060708090000000001020304FA
:1024B000D0240008000000205C000000B8220008C2
:1024C0002C2500085C0000203C100000C8220008F9
:1024D00000000000E8030000E8030000DC05000045
:1024E00000000000000000000000000000000000EC
:1024F00000000000000000000000000000000000DC
:1025000000000000000000000000000000000000CB
:102510000000000000000A00100B00000000000096
:0C252000000000000000000000127A0023
:04000005080000C12E
:00000001FF
