:020000040800F2
:10000000C8110020D5000008491A0008F51800089A
:1000100000000000000000000000000000000000E0
:10002000000000000000000000000000291D000882
:100030000000000000000000091D00082B1D000842
:100040000501000800000000050100080501000886
:100050000501000805010008050100080501000868
:100060000000000005010008050100080501000866
:100070000501000805010008050100080000000056
:100080000501000800000000000000000501000854
:100090000000000005010008050100080501000836
:1000A000000000000501000800000000FD2200081B
:1000B00029230008000000000000000005010008DE
:1000C0000348854600F05AF8004800475D230008C1
:1000D000C81100200C4880F308880C480168090EFC
:1000E0000B4A914205D10B480B4901600B480C4962
:1000F00001600C4880470C480047FEE7FEE7FEE73A
:10010000FEE7FEE7FEE70000C81100200400000043
:100110001F00000018100240010000000000014014
:1001200000000000BD1D0008C100000830B50B46EE
:10013000014600202022012409E00D46D5409D42C1
:1001400005D31D469540491B254695404019154647
:10015000521E002DF1DC30BD10B5202A04DB08460C
:10016000203AD040002110BD0B46D340D04020247F
:10017000A21A91400843194610BD0000064C012503
:10018000064E05E0E36807CC2B430C3C984710343F
:10019000B442F7D3FFF798FF6025000880250008D8
:1001A000024600200EE0135C392B06DC135C302B7A
:1001B00003DB135C303B135402E0135C373B1354F6
:1001C000431CD8B28842EEDB70470146392905DC72
:1001D000302903DB08463038C0B27047462901DCBD
:1001E000412903DA662905DC612903DB0846373833
:1001F000C0B2F2E700BFF0E70021084AD161084928
:10020000096902221143064A1161114648610969D0
:1002100040221143024A116170470000A80D0020DE
:10022000002002400022054BDA61054A12690123D1
:100230001A43034B1A61018070470000A80D00208B
:100240000020024000200F49C968102211401029E7
:1002500007D10D49C969022211430B4AD16110210E
:1002600008430849C96804221140042907D10649F6
:10027000C96901221143044AD1610421084301499B
:10028000C860704700200240A80D002070B50446E9
:1002900000F048FC05460BE0601C002808D0002C4C
:1002A00004D000F03FFC401BA04201D9032070BDE8
:1002B0000F48C068C007C00F0028EDD10C48C068C7
:1002C00020210840202801D10949C8600848C06899
:1002D00010210840102805D00548C06804210840B6
:1002E000042803D1FFF7AEFF0120E0E70020DEE79E
:1002F00000200240F7B504460B460026002273E0BA
:10030000985C212819D195B200E0521C985C4028D5
:10031000FBD1521E571B0DE0D11B491C585CFFF747
:1003200054FF0A214843791E484021884018208004
:1003300000267F1E002FEFDC1CE0985C402819D1BE
:10034000002E17D195B200E0521C985C2328FBD1F7
:10035000521E571B0CE0D11B491C585CFFF735FFA0
:10036000791E8900884061884018608001267F1EC0
:10037000002FF0DA985C262818D195B200E0521CC4
:10038000985C4028FBD1521E571B0CE0D11B491C26
:10039000585CFFF71AFF791E89008840E1884018F1
:1003A000E08001267F1E002FF0DC1CE0985C4028D6
:1003B00019D1002E17D095B200E0521C985C2A2863
:1003C000FBD1521E571B0CE0D11B491C585CFFF798
:1003D000FCFE791E89008840218940182081012671
:1003E0007F1E002FF0DA521C0298824288DD3046D0
:1003F000FEBD0000F8B505460E460027002400F0BB
:100400007DFAB1E1305D3A287ED1641C0823224692
:10041000DA49304601F07AFC08340821D748FFF762
:10042000BFFED6484078D5490978090140184006F2
:10043000000ED3490870D1484079D04909790901A3
:100440004018CE49C97809024018CC498978090377
:100450004018CC490880C948C079C8498979090140
:100460004018C9490870C6490878C10F09184910D1
:10047000C44A12788918C34A128812128918C24ACB
:1004800012788918C14A1170BF48007800287DD1C0
:1004900069E008232246B949304601F037FC0834A8
:1004A0000821B648FFF77CFE002016E0B349095C3E
:1004B0000907090EB14A11541146095C431CD25C6C
:1004C0001143AE4A11541146095C82009140B04A72
:1004D00012681143AE4A1160801C0828E6DB72B630
:1004E000AC48006902218843AA49086108460069AE
:1004F00001210843A7490861A24800880122D206C9
:100500008118A348002300E02DE10268022000F0DA
:1005100097F9A149087000BF9E48C068C007C00F86
:100520000028F9D162B69A480088000A98490978EB
:10053000401897490968090C401895490968090E3F
:100540004018924909784018904908708C48007802
:1005500008388B4908708B480088001D894908803D
:1005600000208B49086086480078002803DD8A480F
:10057000007800288DD085480078C043401C83490E
:100580000870022322467D49304600E024E001F055
:10059000BDFBA41C02217948FFF702FE7748407892
:1005A00076490978090140187C4908707748007835
:1005B0000978884201D00020F8BD002073490870F6
:1005C0006888774909884018754908807548007817
:1005D000401C74490870C7E06B48007804284ED16D
:1005E000042322466549304601F090FB241D042176
:1005F0006248FFF7D5FD6148007800075F494978F8
:10060000090608435D498978090508435B49C978AB
:1006100009040843644908605848007857494978F4
:1006200040185649C97840185449C9784018574964
:10063000097840185549087008460078C043401CA6
:100640000870022322464D49304601F05FFBA41C8E
:1006500002214A48FFF7A4FD4848407847490978F5
:10066000090140184D4908704848007809788842C7
:1006700001D00120A0E700204449087074E04248FE
:10068000007805284FD13E48037822463B49304642
:1006900001F03CFB3A480078241839480178374883
:1006A000FFF77EFD00200CE03449095C344A1278E3
:1006B000121A920091403D4A126889183B4A116013
:1006C000401C2F4909788842EEDB002007E02B49C7
:1006D000095C2E4A127889182C4A1170401C28494E
:1006E00009788842F3DB29480078C043401C274939
:1006F0000870022322462149304601F007FBA41C62
:1007000002211E48FFF74CFD1C4840781B49097820
:1007100009014018214908701C480078097888426E
:1007200022D0022048E71848007801281CD1022373
:1007300022461249304601F0E9FAA41C02210F4872
:10074000FFF72EFD0D4800780F2803D10B484078A5
:100750000F2801D003202FE700F068F80520144986
:100760000870012704E0641C6888A04200DB49E6A9
:1007700000BF00F05BF804201EE700003C000020F2
:10078000190000201C0000201A0000201E0000207C
:1007900020000020002002401F0000201B0000203D
:1007A000500000204C000020240000200000002009
:1007B0004D00002070B5044600252120005D022870
:1007C00003D00420A06301251EE0206800680E21EC
:1007D000884321680860206800684008400021685C
:1007E00008600120216C8840E16B486001212120D4
:1007F000015500BF00212020015500BF606B00287B
:1008000002D02046616B8847284670BD31B500F0A4
:1008100089F90546009C601C002800D0641C00BFBC
:1008200000F080F9401BA042FAD338BD03480069AC
:1008300080210843014908610020704700200240E0
:10084000F0B51FB486B0074615461E46012003903A
:1008500000240020029000BF2548007E012802D11C
:1008600002200BB0F0BD01202149087600BF2148CD
:10087000FFF70CFD03900398002831D1012F02D11E
:100880000120029006E0022F02D10220029001E036
:100890000420029000241FE02201284631460496DD
:1008A0000595FFF759FC80B2610001900798081880
:1008B00000900199FFF7B6FC0E48FFF7E7FC0390A4
:1008C0000D480069400840000B4908610398002862
:1008D00000D004E0601CC4B202988442DCDB00BF9C
:1008E00000BF00200249087600BF0398B9E7000066
:1008F000A80D002050C300000020024007480069F6
:1009000080210840002805D0054804494860054872
:10091000486001E0012070470020FCE70020024011
:1009200023016745AB89EFCD78B50346002200244B
:100930000020DEE0012696400D6835402C46002C54
:100940007ED04D68022D02D04D68122D15D1D508EC
:10095000AE001D462035A8595507EE0E0F25B540AF
:100960000646AE4330465607F60E0D69B54028439D
:10097000D508AD001E462036705118685600032574
:10098000B5400646AE4330460D79AD07AD0F560073
:10099000B540284318604D68012D08D04D68022DE0
:1009A00005D04D68112D02D04D68122D18D19868D0
:1009B00056000325B5400646AE4330465600CD6886
:1009C000B540284398605868012595400646AE43D7
:1009D000304610264D6835402D0995402843586013
:1009E000D86856000325B5400646AE43304656004B
:1009F0008D68B5402843D860012636074D683540DC
:100A0000B54275D100BF3E4DAD69012635433C4E20
:100A1000B5613546AD69ED07ED0F009500BF00BF2C
:100A2000384D9608B600A85995072E0F0F25B540EA
:100A30000646AE4330460925ED06AB4203D100E041
:100A400056E000250FE0304DAB4201D101250AE010
:100A50002E4DAB4201D1022505E02D4DAB4201D117
:100A6000032500E005259607360FB5402843254DA0
:100A70009608B600A851274D28680546A543284684
:100A8000012636044D683540B54202D1054625435E
:100A90002846204D286068680546A543284601265B
:100AA00076044D683540B54202D1054625432846B7
:100AB000184D6860A8680546A543284601263605F6
:100AC0004D683540B54202D1054625432846114DB3
:100AD000A860E8680546A5432846012676054D68C6
:100AE0003540B54202D1054625432846094DE86008
:100AF000521C0D68D540002D00D01BE778BD0000CA
:100B000000100240080001400004004800080048AE
:100B1000000C004800040140002A01D0816100E07F
:100B2000816270470148006870470000580000204B
:100B300002480068401C01490860704758000020C6
:100B400010B50648006810210843044908600020D9
:100B500000F006F800F018F8002010BD0020024058
:100B600070B5044600F020F906467D21C900FFF764
:100B7000DDFA054600F08AFC00222146501E00F0F6
:100B80003FF8002070BD000008B500BF154880691F
:100B9000012108431349886108468069C007C00FD6
:100BA000009000BF00BF00BF0846C06909040843A9
:100BB0000C49C8610846C06909040840009000BF9C
:100BC00000BF00221146501F00F01AF80022114603
:100BD000901E00F015F800221146501E00F010F88B
:100BE00008BD00000010024000BFC206D20E012165
:100BF0009140024A116000BF7047000000E100E030
:100C000070B504460D4616462946204600F01EFFE4
:100C100070BD000070B504460D4600265D480068B2
:100C2000C007C00FA8420ED25A48006840084000D2
:100C300028435849086008460068C007C00FA8420A
:100C400001D0012070BD022120680840022807D190
:100C500051484068F0218843A16808434E494860E4
:100C60002078C007C00F00285FD06068012808D135
:100C700049480068012149040840002815D1012095
:100C8000E0E76068022808D143480068012149066E
:100C90000840002809D10120D4E73F48006802211C
:100CA0000840002801D10120CCE73B48406880087B
:100CB00080006168084338494860FFF733FF064603
:100CC000606801280FD107E0FFF72CFF801B334934
:100CD000884201D90320B5E72F4840680C2108401D
:100CE0000428F1D121E0606802280FD107E0FFF766
:100CF00019FF801B2949884201D90320A2E7264811
:100D000040680C2108400828F1D10EE007E0FFF709
:100D100009FF801B2149884201D9032092E71E4820
:100D200040680C2108400028F1D11A480068C0072B
:100D3000C00FA8420ED91748006840084000284359
:100D40001449086008460068C007C00FA84201D0D7
:100D5000012077E7042120680840042808D10E48C4
:100D60004068072109028843E16808430A4948604E
:100D700000F032F808494968F02211400909084A90
:100D8000515CC840074908600020FFF7E9FE0020D9
:100D900058E70000002002400010024088130000C5
:100DA000482500085C0000200148006870470000EA
:100DB0005C00002000B5FFF7F7FF054949680722EE
:100DC00012021140090A034A515CC84000BD0000EC
:100DD0000010024058250008F0B589B025A0014652
:100DE0000EC9C06805AC0EC4089026A001460EC905
:100DF000C06801AC0EC40490002400260027002522
:100E000000200090234844680C20204000282AD06D
:100E1000042802D0082825D102E01F48009025E0D0
:100E20000F2080042040800C05A90D5C1948C06A81
:100E30000007000F01A90E5C0320C0032040012120
:100E40000904884206D131461348FFF76FF9684319
:100E5000074605E031461048FFF768F96843074642
:100E6000009703E000BF0C48009000BF00BF00984F
:100E700009B0F0BD02030405060708090A0B0C0DB2
:100E80000E0F10100102030405060708090A0B0CD7
:100E90000D0E0F100010024000127A00F8B5044643
:100EA00000252078C007C00F002872D0FA4840689B
:100EB0000C21084004280CD0F74840680840082856
:100EC00013D1F548406849030840012109048842CC
:100ED0000BD1F148006801214904084000286BD07B
:100EE0006068002868D10120F8BD00BF6068012853
:100EF00007D1E9480068012109040843E649086070
:100F000031E0606800280ED1E3480068012109043F
:100F10008843E14908600846006801218904884344
:100F2000DD4908601FE0606805280ED1DA480068D6
:100F3000012189040843D849086008460068012156
:100F400009040843D44908600DE0D3480068012132
:100F500009048843D04908600846006801218904D3
:100F60008843CD49086000BF6068002812D0FFF7B1
:100F7000D9FD054606E0FFF7D5FD401B642801D9E1
:100F80000320B1E7C4480068012149040840002853
:100F9000F1D011E0FFF7C6FD054606E0FFF7C2FD00
:100FA000401B642801D903209EE7BB48006801214B
:100FB000490408400028F1D1022120680840022895
:100FC00062D1B54840680C21084000280CD0B248D6
:100FD0004068084008281CD1AF48406849030840D1
:100FE0000121C903884214D1AB480068022108409E
:100FF000002804D0E068012801D0012074E7A64849
:101000000068F82188432169C9000843A2490860A3
:101010003AE0E068002820D09F480068012108439A
:101020009D490860FFF77EFD054606E0FFF77AFD63
:10103000401B022801D9032056E797480068022187
:1010400008400028F2D094480068F82188432169BC
:10105000C90008439049086016E08F4800684008BE
:1010600040008D490860FFF75DFD054606E0FFF78B
:1010700059FD401B022801D9032035E78648006846
:10108000022108400028F2D10821206808400828E1
:1010900031D1E069002817D07F48406A0121084318
:1010A0007D494862FFF73EFD054606E0FFF73AFD41
:1010B000401B022801D9032016E77748406A022125
:1010C00008400028F2D016E07348406A400840000B
:1010D00071494862FFF726FD054606E0FFF722FD4D
:1010E000401B022801D90320FEE66B48406A02211A
:1010F00008400028F2D1042120680840042871D15A
:1011000000266548C0698906084000280DD100BF47
:101110006148C06908436049C8610846C06909045C
:101120000840009000BF00BF01265C480068FF2116
:1011300001310840002816D1584800680843574933
:101140000860FFF7EFFC054606E0FFF7EBFC401BED
:10115000642801D90320C7E650480068FF21013107
:1011600008400028F1D000BFA068012806D14A48F5
:10117000006A01210843484908622BE0A068002862
:101180000CD14548006A40084000434908620846BF
:10119000006A04218843404908621BE0A0680528D2
:1011A0000CD13D48006A042108433B4908620846C7
:1011B000006A01210843384908620BE03648006A9A
:1011C00040084000344908620846006A0421884308
:1011D0003149086200BFA068002813D0FFF7A2FCC5
:1011E000054608E029E0FFF79DFC401B2C4988429A
:1011F00001D9032078E62848006A02210840002827
:10120000F1D011E0FFF78EFC054607E0FFF78AFCFE
:10121000401B2349884201D9032065E61E48006A25
:10122000022108400028F1D1012E05D11A48C069D9
:10123000310788431849C86100BF10212068084061
:1012400010285FD1606901282CD11348406B04211C
:101250000843114948630846406B012108430E4981
:101260004863FFF75FFC054606E0FFF75BFC401BA9
:10127000022801D9032037E60748406B02210840C5
:101280000028F2D00448406BF8218843A169C900C6
:1012900008430149486335E00010024000700040F7
:1012A000881300006069401D00280FD14E48406B34
:1012B000042188434C4948630846406BF821884321
:1012C000A169C9000843484948631BE04648406B90
:1012D00004210843444948630846406B40084000E5
:1012E0004863FFF71FFC054606E0FFF71BFC401BA9
:1012F000022801D90320F7E53B48406B0221084052
:101300000028F2D1206A00286CD0374840680C21B0
:101310000840082864D0206A022847D13248006873
:1013200001210906884330490860FFF7FBFB0546A9
:1013300006E0FFF7F7FB401B022801D90320D3E5A5
:10134000294800680121490608400028F1D100BF62
:101350002548C06A00090001E16A08432249C862C1
:10136000616AA06A0843204949687B22D2039143FD
:1013700008431D49486000BF08460068012109066E
:10138000084319490860FFF7CDFB054606E0FFF763
:10139000C9FB401B022801D90320A5E512480068BB
:1013A0000121490608400028F1D01BE00E480068E2
:1013B0000121090688430C490860FFF7B3FB054685
:1013C00006E0FFF7AFFB401B022801D903208BE5A5
:1013D000054800680121490608400028F1D101E0D4
:1013E000012081E500207FE500100240042806D19D
:1013F0000649096904221143044A116105E00349C1
:10140000096904229143014A1161704700E000E03C
:1014100010B5FFF787FB1649086016488079002849
:101420001BD115480078012817D100231A46012145
:10143000124800F047FB044611480088002802D1FA
:1014400010480F49088010480088002804DD0E4825
:101450000088401E0C49088000BF09480088002809
:1014600004DD07480088401E0549088010BD0000C3
:10147000100000202A0000204D0000207A0B0020E0
:1014800052000020B80B00000C00002070B504468C
:101490002546681E0949884201D901200CE0681ED2
:1014A000074948610321081F00F0D0FA00200449D1
:1014B000886107200861002070BD0000FFFFFF0069
:1014C00000E000E010B5FFF7A3FF10BD704700007B
:1014D000F8B504462068C569206806682807000F2B
:1014E0000090009800280BD120202840002807D029
:1014F00020203040002803D0204600F053FDF8BDE6
:1015000020688768009800287ED0F807C00F002860
:1015100004D1FF20213030400028F5D0E807C00F6B
:1015200000280BD0FF2001303040002806D00120D9
:1015300021680862E06E01210843E066022028402D
:1015400000280AD0F807C00F002806D00220216822
:101550000862E06E04210843E06604202840002869
:101560000AD0F807C00F002806D0042021680862BE
:10157000E06E02210843E0660820284000280ED0D3
:1015800020203040002803D1F807C00F002806D0E3
:10159000082021680862E06E08210843E066E06EDA
:1015A000002841D020202840002806D020203040AC
:1015B000002802D0204600F0F9F8E06E082108402B
:1015C000002805D12068806840210840002826D0E6
:1015D000204600F0C6FC20688068402108400028B2
:1015E00019D020688068884321688860606E002870
:1015F0000DD01B48616E4863606EFFF7DBF8002872
:1016000012D0606E416B00E00FE088470CE020468E
:10161000FFF75CFF08E02046FFF758FF04E0204694
:10162000FFF754FF0020E06669E78020284000288B
:1016300007D080203040002803D0204600F0ECFD89
:101640005DE740202840002807D040203040002897
:1016500003D0204600F096FC51E700BF4FE70000A2
:101660004B1F000810B50446002C01D1012010BD0D
:10167000A069002800D000E000BF6920005D0028BC
:1016800005D1002168200155204600F02DF82421C5
:101690006920015520680068400840002168086002
:1016A000204600F0C7FC012800D1E0E7606A00286E
:1016B00002D0204600F0C2FB206840680121C90228
:1016C0008843216848602068806808218843216831
:1016D000886020680068012108432168086020466E
:1016E00000F024FCC3E7000010B586B004462C4986
:1016F0002068884226D100BF2A48C06901214904D8
:1017000008432849C8610846C069012149040840C6
:10171000009000BF00BF0F20019002200290002027
:101720000390032004900120059001A90920C00620
:10173000FFF7FAF8002211461C20FFF761FA1C207F
:10174000FFF752FA18492068884227D100BF154890
:10175000806901218903084312498861084680692C
:10176000012189030840009000BF00BF0320400210
:101770000190022002900020039003200490012099
:10178000059001A90920C006FFF7CEF800221146F6
:101790001B20FFF735FA1B20FFF726FA06B010BD15
:1017A00000440040001002400038014010B50446DB
:1017B0000949206888420ED12068808CC1B2074850
:1017C00002880088401C054B188005488154FFF7AB
:1017D000A9F90449086010BD003801403A00002012
:1017E0006A00002014000020FEB504460D4616468F
:1017F0001F46002001906920005D20286AD1002D3D
:1018000001D0002E01D10120FEBD01210903A068F5
:10181000884208D12069002805D1E807C00F0028B8
:1018200001D00120F0E700BF6820005D012801D150
:101830000220E9E701216820015500BF0020E06691
:10184000212169200155FFF76DF9019050200653C1
:101850005220065325E05220005B401E81B25220E8
:1018600001530097002280212046019B00F00DFDCE
:10187000002801D00320C7E701210903A06888429E
:101880000BD12069002808D10295029D2888C00547
:10189000C00D21680885AD1C03E028786D1C216807
:1018A00008855220005B0028D5DC009700224021EB
:1018B0002046019B00F0E9FC002801D00320A3E7AB
:1018C00020216920015500BF00216820015500BF7B
:1018D000002099E7022097E7044A0168914203D16A
:1018E0000168098D024A11707047000000440040F1
:1018F0005400002000BFFEE700B587B000BF2448B9
:101900004069012189050843214948610846406929
:10191000012189050840019000BF00BF00BF1C489D
:101920004069491108431A49486108464069012144
:1019300049040840019000BF00BF00220221154861
:10194000FFF7EAF8022002900120039000200490A3
:10195000059002A90F48FEF7E7FF10200290012032
:10196000039000200490059002A90920C006FEF70C
:10197000DBFF2020029001200390002004900590BE
:1019800002A90920C006FEF7CFFF07B000BD000086
:10199000001002400014004810B50F480F490860BD
:1019A000E1200002486000210C488160C1600161B3
:1019B0000C21416100218161C16101620020074960
:1019C00048620846FFF74EFE002803D0472104A0D6
:1019D00000F0B2FC10BD000000380140340D0020C2
:1019E0002E2E2F5372632F75736172742E63000055
:1019F00010B50F480F490860E120400248600021FF
:101A00000C488160C16001610C21416189018161E3
:101A10000021C16101620020064948620846FFF7C3
:101A200021FE002803D05D2103A000F085FC10BD3D
:101A300000440040C40C00202E2E2F5372632F75DB
:101A4000736172742E6300007047000010B50028A7
:101A500019DA1A4A03071B0F083B9B089B00D25850
:101A60008307DC0EFF23A3409A438B071B0E8407DA
:101A7000E40EA3401A43114B0407240F083CA408AA
:101A8000A4001A5118E00E4A03231B02D21883083F
:101A90009B00D2588307DC0EFF23A3409A438B0799
:101AA0001B0E8407E40EA3401A43054B03242402B3
:101AB0001B198408A4001A5110BD00001CED00E0A1
:101AC00000E100E0FFB581B004461746002500F0B4
:101AD000C1FC00900121009800F0C0FC00900122A0
:101AE00029466D1C62540299009800F0B7FC0090E2
:101AF0002A466D1C0299A15400260AE0BA5D2846C8
:101B0000691CCDB22254B95D009800F0A7FC00908A
:101B1000761C04988642F1DB009800F093FC00905C
:101B20000098C2B22846691CCDB222540098001217
:101B30006055681CC0B2054605B0F0BDFEB5044650
:101B40000D466078022806D003281CD004283ED019
:101B500005286ED18AE000BF00BF00BF00BF00BFF4
:101B6000BFF34F8F00BF00BF00BF45484549C86065
:101B700000BF00BF00BFBFF34F8F00BF00BF00BF5B
:101B800000BF00BFFDE740480078012800D074E0A6
:101B900003203D49087001203C4988715521684661
:101BA0000171102141710B218171032301AA194692
:101BB0003748FFF787FF0646FF23F533324634499F
:101BC0003448FFF711FE03202F49087055E02E48D6
:101BD0000078032800D050E02A4621462E48FEF720
:101BE00089FBFEF78BFE2C49098889022B4A88184D
:101BF000FEF702FB00BF2A48C068C007C00F0028DC
:101C0000F9D1FEF713FE2A4621462348FEF7F2FBE0
:101C100004280FD10123552204211D48FFF752FF4C
:101C20000746FF23F5333A4619491A48FFF7DCFD0A
:101C30001BE021E0FF2168460170174801786846E3
:101C400041701548008800126946887003236A466F
:101C500004210F48FFF736FF0746FF23F5333A46C6
:101C60000B490C48FFF7C0FD00BF06E006480078AE
:101C7000052800D001E000E000BF00BFFEBD00006D
:101C80000400FA0500ED00E04D0000202A000020CD
:101C90007A0B0020340D002060000020002800088E
:101CA00000200240F8B504460E4600F0D3FB07467C
:101CB000002506E0615D384600F0D0FB0746681C51
:101CC00085B2B542F6DB002F16D12078012800D06E
:101CD000F8BD6078022809D06078032806D06078C3
:101CE000042803D06078052800D0F1E70448018873
:101CF0000448FFF723FF00E0EAE700BFE8E7000041
:101D00003A0000206A0000207047000070B50446C9
:101D1000002004E01518655D024E3554401C9842C1
:101D2000F8DB70BD3C000020704710B5FEF700FFE7
:101D3000FFF7C8FB10BD000030B591B00220059040
:101D4000012008901020099000200D9005A8FFF7B1
:101D5000A5F8002803D0144914A000F0EDFA0720DC
:101D600001900020029003900490002101A8FEF74A
:101D700051FF002804D0F32189000CA000F0DCFA08
:101D8000FFF712F805467D21C900FEF7CFF904469A
:101D9000FFF77CFB0420FFF729FB00221146501EB1
:101DA000FEF72EFF11B030BDBF0300002E2E2F53C3
:101DB00072632F6D61696E2E630000001C4800681D
:101DC000012108431A49086008464068194908403B
:101DD00017494860084600681749084014490860D8
:101DE00008460068012189048843114908600846B3
:101DF00040683F21090488430D4948600846C06A8D
:101E000000090001C8620846006BFF219431884335
:101E1000074908630846006B8021084304490863AA
:101E20000846406B400840004863002088607047C7
:101E3000001002400CB8FF08FFFFF6FE818CC907B6
:101E4000C90F002908D00168496801225204914352
:101E5000826A1143026851600222416A11400029DE
:101E600007D001684968D2039143C26A11430268EE
:101E700051600422416A1140002907D00168496875
:101E800012049143026B1143026851600822416AB7
:101E90001140002907D00168496812039143426B41
:101EA0001143026851601022416A1140002907D095
:101EB0000168896812029143826B11430268916044
:101EC0002022416A1140002907D001688968120266
:101ED0009143C26B1143026891604022416A1140F4
:101EE000002915D00168496892039143026C11439F
:101EF0000268516001221205016C914208D101680B
:101F00004968032252059143426C114302685160B3
:101F10008022416A1140002907D0016849681203F4
:101F20009143826C11430268516070470146002062
:101F3000C8662022692042546A20425400BF002211
:101F40006820425400BF0020704770B505466C6A97
:101F500000215A200153522001532046FFF7B6FAC0
:101F600070BD01680968FF22213291430268116047
:101F700001688968490849000268916020226A2145
:101F80000A54704710B50446206800684021884311
:101F9000216808602021692001552046FFF79CFC3C
:101FA000002010BDF8B504465C20075B6A20005D88
:101FB000222836D12068858C01210903A068884237
:101FC0000AD12069002807D1666D28463840308044
:101FD000606D801C606505E0F8B22840626D511CA0
:101FE000616510705A20005B401E81B25A20015377
:101FF000002914D120680068FF212131884321681D
:1020000008602068806840084000216888602021BE
:102010006A2001552046FFF7C9FB0020F8BD0020CB
:10202000FCE7206880690821084321688861022054
:10203000F4E70000FEB50446002510260027002026
:10204000029001902169A068084361690843E16931
:10205000084305462068006868490840284321680D
:10206000086020684068032109038843E168084349
:1020700021684860216AA069084305462068806895
:102080000B210902884328432168886000BF5C490E
:102090002068884217D15B48006B8007800F0028BA
:1020A00006D0012808D0022808D0032808D101E072
:1020B000002607E0022605E0042603E0082601E0EA
:1020C000102600BF06E050492068884201D1002652
:1020D00000E0102600BF0121C903E069884249D110
:1020E000042E20D004DC002E07D0022E32D111E0C5
:1020F000082E25D0102E2DD12DE0FEF75BFE4000DE
:1021000061684908401800906168FEF70FF880B2D6
:10211000029023E061684A083C4BD018FEF706F8AD
:1021200080B202901AE0FEF757FE4000616849084D
:10213000401800906168FDF7F9FF80B202900DE051
:1021400061684A0801231B04D018FDF7EFFF80B235
:10215000029003E000BF0120019000BF00BF2C49A6
:1021600002980840074602980007400F074320687E
:10217000C76040E0042E21D004DC002E07D0022EE0
:1021800034D111E0082E26D0102E2FD12FE0FEF7EB
:1021900011FE61684908401800906168FDF7C6FFAC
:1021A00080B22168C86025E061684A08194BD018E0
:1021B000FDF7BCFF80B22168C8601BE0FEF70CFE93
:1021C00061684908401800906168FDF7AFFF80B270
:1021D0002168C8600EE061684A080123DB03D0185B
:1021E000FDF7A4FF80B22168C86003E000BF0120B2
:1021F000019000BF00BF0198FEBD0000F369FFEF32
:102200000038014000100240004400400024F40067
:10221000F0FF000000127A0001466920405C21288E
:1022200031D15220405A00280DD10868006880231F
:1022300098430B68186008680068402318430B68CF
:1022400018600020704701231B03886898420CD156
:102250000869002809D1CA6C1088C005C00D0B6838
:102260001885C86C801CC86405E0CB6C581CC86419
:1022700018780B6818855220405A401E83B25220AD
:1022800043520020DEE70220DCE7FFB581B00446C0
:102290000D4617460A9E24E0701C002821D0002E0F
:1022A00005D0FEF73FFC0499401AB04219D92068C6
:1022B0000068FF21A1318843216808602068806898
:1022C00040084000216888602021692001556A206B
:1022D000015500BF00216820015500BF032005B053
:1022E000F0BD2068C0692840A84201D1012000E06B
:1022F0000020B842D0D00020F1E7000010B5094816
:102300000068C06920210840002802D00548FFF776
:102310004DFA04480068006A0F2108430149096822
:10232000086210BD340D002010B50248FFF7D0F848
:1023300010BD0000C40C002000BFFEE702E008C88A
:10234000121F08C1002AFAD170477047002001E02F
:1023500001C1121F002AFBD170470000FEF7F0FBFD
:10236000FFF7EAFCFFF7C8FAFFF742FBFFF714FBA1
:102370001C20012181402B4A116000BF62B62A480F
:102380000068006820210843274909680860002088
:102390002649887111200880222048800B20C00225
:1023A00088806420FEF732FA012220210920C0062D
:1023B000FEF7B2FB6420FEF729FA7D20C000FEF78D
:1023C00025FA002210210920C006FEF7A5FB7D207A
:1023D000C000FEF71BFA15488079012802D10020C1
:1023E0001249887111488079002802D101201049D2
:1023F000087016E00F4800680F490968401A052860
:102400000BD90E480088002807DD0C4801880C48CD
:10241000FFF748FC0020094908807D20C000FEF736
:10242000F5F9E7E700E100E0340D00202A00002084
:102430004D00002010000020140000203A00002071
:102440006A00002000B50346184600F037F803463E
:10245000184600BD00487047FFFF000030B5044635
:102460000D460123024A2946204600F003F830BDFC
:1024700005800000F0B504460D4616461F46002FA5
:1024800003D0284600F048F80546802312E00121D9
:10249000C9032140084661040C0C29461940002953
:1024A00002D00121C9034840002802D021467140D2
:1024B0000C465B10002BEAD12046F0BD10490140CC
:1024C0004900104A02405210114308460E4901408B
:1024D00089000E4A02409210114308460C490140FF
:1024E00009010C4A02401211114308460106090C69
:1024F000FF221202024012121143084670470000E8
:1025000055550000AAAA000033330000CCCC0000CF
:102510000F0F0000F0F00000552101404900AA22F1
:102520000240521011430846332101408900CC2259
:1025300002409210114308460107090EF0220240A2
:10254000121111430846704700000000000000000F
:102550000102030406070809000000000102030449
:102560008025000800000020600000003C230008D7
:10257000E025000860000020681100004C230008DE
:1025800000000000E8030000E8030000DC05000094
:10259000000000000000000000000000000000003B
:1025A000000000000000000000000000000000002B
:1025B000000000000000000000000000000000001B
:1025C0000000000000000A00100B000000000000E6
:1025D0000000FA00000000000000000000127A0075
:04000005080000C12E
:00000001FF
